:100000000C944F000C946E000C946E000C946E00D7
:100010000C946E000C946E000C946E000C946E00A8
:100020000C946E000C946E000C946E000C946E0098
:100030000C946E000C94AC000C946E000C946E004A
:100040000C946E000C946E000C946E000C946E0078
:100050000C946E000C946E000C946E000C946E0068
:100060000C946E000C946E000C946E000C946E0058
:100070000C946E000C946E000C946E000C946E0048
:100080000C946E000C946E000C946E001B01220107
:10009000290139014B015B016D017D018F011124A3
:1000A0001FBECFEFD0E4DEBFCDBF11E0A0E0B1E0D6
:1000B000E0EEF3E000E00BBF02C007900D92A2312A
:1000C000B107D9F711E0A2E1B1E001C01D92AA3158
:1000D000B107E1F70E94CB010C94EE010C940000F3
:1000E000CF93C82F8A3019F48DE00E947000909150
:1000F000C00095FFFCCFC093C60080E090E0CF9198
:1001000008958BE0809381008DE790E090938900C3
:100110008093880082E080936F0010928500109297
:1001200084008091000190910101A0910201B091A1
:1001300003018093130190931401A0931501B093D0
:1001400016018FB780688FBF0895109281000895BF
:1001500081E08093170108951F920F920FB60F92BE
:1001600011240BB60F922F933F934F935F936F938E
:100170007F938F939F93AF93BF93EF93FF93809160
:10018000130190911401A0911501B09116010197EE
:10019000A109B1098093130190931401A093150153
:1001A000B0931601892B8A2B8B2B91F40E94A80007
:1001B0008091000190910101A0910201B091030191
:1001C0008093130190931401A0931501B09316012D
:1001D000FF91EF91BF91AF919F918F917F916F911F
:1001E0005F914F913F912F910F900BBE0F900FBEDB
:1001F0000F901F90189560930001709301018093F8
:100200000201909303016093130170931401809392
:10021000150190931601089580B180958170E09149
:100220001801F0911901E930F10508F08AC0EA5B84
:10023000FF4F0C94E50181E090E0909319018093C9
:10024000180185C082E090E0909319018093180115
:100250007EC0882339F083E090E090931901809369
:10026000180175C084E090E0909319018093180103
:100270006EC0882339F088E090E090931901809354
:10028000180165C0811163C083E090E0909319016B
:10029000809318015CC0882339F085E090E090934A
:1002A00019018093180153C086E090E090931901E2
:1002B000809318014CC0882339F088E090E0909337
:1002C00019018093180143C0811141C085E090E07D
:1002D00090931901809318013AC0882339F087E080
:1002E00090E0909319018093180131C082E090E072
:1002F00090931901809318012AC0882339F088E06F
:1003000090E0909319018093180121C081111FC0C2
:1003100087E090E0909319018093180118C088231A
:1003200039F082E090E090931901809318010FC09A
:1003300081110DC088E090E090931901809318011D
:1003400006C081E090E0909319018093180180919C
:100350001801909119018230910571F018F40197FC
:1003600039F008958430910561F0069779F0089589
:100370001092120115B8089581E08093120185B999
:10038000089582E08093120185B9089584E08093F6
:10039000120185B9089511B88FEF82B984B915B8E3
:1003A0006CE271E080E090E00E94FB000E9481001E
:1003B00010921901109218010E940C0180911701EE
:1003C0008823E1F310921701F7CFEE0FFF1F0024EF
:1003D000001C0BBE0790F691E02D0994F894FFCF16
:1003E000010000000000000200000000700000009A
:0203F00000000B
:00000001FF
